:020000041000EA
:1000000000B5324B212058609868022188439860DF
:10001000D860186158612E4B002199600221596106
:100020000121F02299502B49196001219960352056
:1000300000F044F80222904214D00621196600F024
:1000400034F8196E01211966002018661A6600F04E
:100050002CF8196E196E196E052000F02FF8012189
:100060000842F9D1002199601B49196000215960AB
:100070001A491B48016001219960EB211966A021F2
:10008000196600F012F800219960164914480160C1
:100090000121996001BC002800D000471248134993
:1000A000086003C880F30888084703B5996A0420EC
:1000B0000142FBD001200142F8D103BD02B5186610
:1000C0001866FFF7F2FF186E186E02BD00000240BE
:1000D000000000180000070000035F00212200005C
:1000E000F4000018222000A00001001008ED00E03C
:1000F00000000000000000000000000074B24E7A12
:1001000000200420F7010010C3010010C5010010F9
:10011000C1010010C1010010C1010010C101001097
:10012000C1010010C1010010C1010010C701001081
:10013000C1010010C1010010C9010010CB01001065
:10014000CD010010CD010010CD010010CD01001037
:10015000CD010010CD010010CD010010CD01001027
:10016000CD010010CD010010CD010010CD01001017
:10017000CD010010CD010010CD010010CD01001007
:10018000CD010010CD010010CD010010CD010010F7
:10019000CD010010CD010010CD010010CD010010E7
:1001A000CD010010CD010010CD010010CD010010D7
:1001B000CD010010CD010010CD010010CD010010C7
:1001C00000BE00BE00BE00BE00BE00BEEFF3058054
:1001D000103800BEF2EB8871CC130110F01301103F
:1001E0003402001090A31AE700201F49086006C8D7
:1001F00081F3088810471D48006800282FD10DA4FE
:100200000ECC002902D000F012F8F9E71849194A7B
:10021000002000E001C19142FCD1174988471749ED
:1002200088471749884700BEFDE701C901C29A42C5
:10023000FBD37047F0130110C0000020B01A00205B
:10024000E02D01100000042000000420E02D01102A
:10025000001004200010042000000000704709482E
:1002600003F056FB0047000008ED00E0000000D05E
:10027000B01A0020F41E002069260010E5030010CB
:10028000272600105756000006005250ABB36053AB
:10029000B0F3001006005250861C0302C0F3001099
:1002A000060052505422A29DD0F300100500525077
:1002B000DE65F468E02D0110F8B5C04610B5064CB7
:1002C0002378002B07D1054B002B02D0044800E017
:1002D00000BF0123237010BDB01B002000000000F0
:1002E00060E10010044B10B5002B03D00349044813
:1002F00000E000BF10BDC04600000000B41B00209D
:1003000060E10010024B01221A7001207047C046C4
:10031000EF1E0020F0B587B04308072119400024E4
:1003200003940494059410230493174B0593FA2324
:10033000DB000493154B059305006B1E9D418B005C
:100340005A189200124EB44662441668754001274E
:100350003D40802676013243156066465D18AD004B
:10036000AC512A0062449460D460059C01941461ED
:10037000049C5460039A17435B189B009F5104210F
:1003800000F042FB07B0F0BDFFFF0000E7030000F4
:100390000000054030B5420807231A40012425001B
:1003A000054089B293009B189B000B4A9446634416
:1003B00004420CD010229140002D0AD0074A186840
:1003C00041401140802252011343196030BD2A0080
:1003D000F1E7034AF3E7C0460C0005400000FFFFC9
:1003E000FFFF000010B592B01620FFF793FF152015
:1003F000FFF790FF1420FFF78DFF04F0D5F801F010
:100400003BF90CAB029300230193314B0093314A2B
:10041000002301F073FA002854D02F4C2F492000FC
:1004200004F0EAFA03210E2000F0EEFA03210F2077
:1004300000F0EAFA2A492B4804F0DEFA03211020E2
:1004400000F0E2FA0321112000F0DEFA002201217F
:10045000102000F0F1FA00220121112000F0ECFA46
:100460004023009340333C22210004A800F07AFA94
:10047000002104A800F098F80123009300231A003B
:10048000194904A800F040F804A800F087FA09E030
:1004900000211620FFF77EFF144B00221A60144B38
:1004A00000221A70124B1B78002BFBD00F4B1B68DD
:1004B000002BEDD164211620FFF76CFF0B4B0122BE
:1004C0001A60ECE70B4804F033F8012012B010BDBD
:1004D0000503001040420F0040120020801A060061
:1004E000A08601003812002074E10010B81C002022
:1004F000EF1E002060E10010024B03608180C2808B
:100500007047C04684E10010F0B5DE4657464E46BF
:100510004546E0B583B080468B46160001932AE03D
:1005200064080135002C0ED0E307F9D5002DF7DB68
:10053000F388AB42F4DD33689F68AAB20C9B414656
:100540003000B847ECE757464346B0461E00013737
:100550000136B6B2072F0BDC43469B88B342F6D96F
:100560004B46DC5D019DBA46330046469846D9E7C6
:1005700001239C46E3445B461A78002A0BD0130003
:10058000203A5F2A00D97F23203BDB00054A9946A9
:1005900091440027DEE703B0F0BCBB46B246A94653
:1005A000A046F0BD98E1001010B582B003681C6948
:1005B00083880191C288009200220021A04702B0E6
:1005C00010BD30B5D50884896C436118C4890919F8
:1005D0000724144005696A560120A040824352B2A4
:1005E000581E8341A3401A436A5430BD30B5046994
:1005F000D50883896B435B18C1895B18E05C0723CE
:100600001A40030013410120184030BDF0B5D64612
:100610004F464646C0B582B081468C4614000193D1
:100620000AAB1B880B9D12E00023D356012787409D
:10063000BB435BB22F007E1EB74187403B43137024
:10064000013201390029EFD10134A4B243465F1EC3
:10065000BAB29046002B0FD0E3084A4692895A431B
:1006600062444B46DB89D2184B461B699A4652447A
:10067000072020400199E5E702B0E0BCBA46B14648
:10068000A846F0BD10B503685B68984710BD000030
:10069000024B0360024B03607047C046BCE400108D
:1006A000A0E4001070B504000D4B083303604569E9
:1006B000002D11D06B68013B6B60002B0CD12B68B7
:1006C0009B6828009847AB68013BAB60002B03D1C7
:1006D0002B68DB6828009847024B2360200070BD20
:1006E000D0E4001084E100100020704710B5C0680D
:1006F000002802D0012103F083FD10BD10B50400D5
:10070000044B0360044B0360102103F079FD2000CB
:1007100010BDC046BCE40010A0E4001010B5044BAE
:100720000360044B0360102103F06AFD10BDC04656
:10073000BCE40010A0E4001070B504000F4B0833B7
:1007400003604569002D11D06B68013B6B60002B85
:100750000CD12B689B6828009847AB68013BAB60C5
:10076000002B03D12B68DB6828009847044B2360DB
:100770001821200003F044FD200070BDD0E40010DB
:1007800084E10010F0B5C64600B504000D00160067
:10079000984606AB1F88FFF7AFFE194B083323605E
:1007A000F00873071DD00123C0186843C019A0606A
:1007B0004346A381E78103F01FFD0600206100236B
:1007C0006361102003F014FD0E4B036001234360AE
:1007D00083600D4B0360C66060612369A26898184E
:1007E00004E00023E0E700221A7001339842FAD1B6
:1007F000A389002B00D1A581200080BCB846F0BDA4
:10080000D0E40010A0E40010BCE4001070B50400B7
:10081000104B0360104B03604569002D11D06B68CD
:10082000013B6B60002B0CD12B689B68280098471C
:10083000AB68013BAB60002B03D12B68DB68280061
:100840009847064B23602021200003F0D9FC2000AC
:1008500070BDC046F4E40010D8E4001084E100103C
:1008600070B504000E4B03600E4B03604569002D0C
:1008700011D06B68013B6B60002B0CD12B689B681F
:1008800028009847AB68013BAB60002B03D12B6875
:10089000DB6828009847044B2360200070BDC046E9
:1008A000F4E40010D8E4001084E1001010B584B026
:1008B00003AA00231380802414705170017F806983
:1008C0000093023304F0C4F804B010BD30B589B011
:1008D000050001AC1A220021200003F07DFCAE23AC
:1008E00023708E3B63702033E370613323710733D1
:1008F00063712033E3710B3323720733A372D83B48
:10090000E372D3332373553B63735933A3731833A3
:10091000E373163B2374AB3B63745133A3747E3390
:10092000E3745B3B237502336375193BA375793B15
:10093000E3751A33237681336376EB885A1EA271EE
:10094000202B01D91222E27201AC04E021782800A8
:10095000FFF7ACFF01341E236B449C42F6D109B073
:1009600030BD000070B582B004000E001500190003
:1009700006AB1A88012300930B00FFF703FF064B19
:100980002360A66125774023226913702000FFF7BA
:100990009DFF200002B070BDF4E4001070B582B07D
:1009A000040081884D1EADB280292BD08026761A96
:1009B000B6B27F2521212000FFF778FFF1B2200099
:1009C000FFF774FFE9B22000FFF770FF222120003B
:1009D000FFF76CFF00212000FFF768FFE188C908DE
:1009E0000139C9B22000FFF761FF4023226913706B
:1009F0002269A368217FA0690024009404F028F8EC
:100A000002B070BD0026D5E710B58300084A9446B1
:100A100063441C6840226240C0241440802252017A
:100A200013431C60C000034B9C466044416010BDF2
:100A300004C001400040014080000B4B9C466044D4
:100A400000290DD00823002A0CD004221343026889
:100A500053400C2213408022520110430360704720
:100A60000023F0E70022F1E704C00140034B1B68BC
:100A700002201840431E9841C0B2704700C0064093
:100A8000EFF3108072B6034B1B68002BFBD0BFF353
:100A90005F8F70472C0100D0BFF35F8F024B0022A5
:100AA0001A6080F3108870472C0100D0F8B506005A
:100AB0000C001500FFF7E4FFE308F718F15C0722CC
:100AC0002240012393400B4205D1DBB20B433B7024
:100AD000FFF7E2FFF8BD2100280001F041FE000011
:100AE000002307E0054A9A189200BFF35F8F0021A8
:100AF000116001331F2BF5D97047C0464000003408
:100B0000054A1078431CDBB21370172B02D913006F
:100B100010221A707047C04688110020074B9B684E
:100B2000103080001950BFF35F8FBFF35F8F044B0D
:100B30000021196082F310887047C04600ED00E084
:100B4000240100D010B5091A081F0A4B9C466144C5
:100B5000094A914208D8C30706D440104005400D09
:100B6000064B184380B210BD054B064AA321064828
:100B700001F05CFDFC070000FE0F000000E0FFFF3D
:100B800008E500105CE7001038E5001010B5091A00
:100B900004394C08090B08D14905490D064A11438F
:100BA0000180064B2343438010BD054B054AAB2112
:100BB000054801F03BFDC04600F0FFFF00F8FFFFD5
:100BC00078E5001030E7001038E50010012383407D
:100BD000034A10681840431E9841C0B27047C0468F
:100BE00000E100E0002904D0034B1860034B1860BB
:100BF0007047034B1860FBE780E200E000E100E093
:100C000080E100E010B5012383401800FFF7EAFF00
:100C100010BD0000024B9B6810308000C058704728
:100C200000ED00E070B504000D00EFF3108672B621
:100C30000C4B1B68002BFBD0BFF35F8F2000FFF72E
:100C4000E9FF094B984201D0A84205D132002900A2
:100C50002000FFF763FF70BD044B054A862105485D
:100C600001F0E4FC240100D0CD01001088E5001063
:100C700078E7001038E50010F0B5CE46474680B55D
:100C800083B006000D00EFF3108872B6564B1B6858
:100C9000002BFBD0BFF35F8F544B9A6834001034A5
:100CA000A300D758524B9F4207D0AF4200D198E0E3
:100CB0000197504BFB1A2F2B09D9424639003000BF
:100CC000FFF72CFF03B0C0BCB946B046F0BD300002
:100CD000FFF77CFF814600213000FFF793FFBFF351
:100CE0005F8FEFF30581002901D08C4211D10123E0
:100CF000019C9C430022A368AB4212D00622A2565C
:100D0000002A0DDB53009B189B002200394CE4188D
:100D1000F1E73621384B394AFF31394801F086FC7A
:100D20002200AB4256D106256557002D38DB6B00FB
:100D30005B199A002F4B9B189A68A260DA79E271CE
:100D400006229A56A2719B795BB2002B0FDA2D48CE
:100D5000A0806B005B199B00264AD3182A4A1178A1
:100D60009971157049463000FFF74CFFA5E7201D2B
:100D70006B005B199B001F4A9B181A1D9B88D90AA0
:100D80001C2907D15B055B15023359005118FFF789
:100D9000D9FEDDE71D4B1E4AB121194801F046FC82
:100DA000002912D1002A0ED0FF239371194B938092
:100DB000154A1378A371184B0E49641A64416343B2
:100DC0001B0D1370CEE70A4FF2E7201D1349FFF702
:100DD000DDFEC7E76A21124B084AFF31084801F0DF
:100DE00025FC034F69E7C046240100D000ED00E078
:100DF000CD0100108C1100209CE6001048E7001087
:100E000038E5001001BD0000EE1E002084E6001051
:100E100068E7001001BDFFFFAAAA0000C61100206C
:100E2000D0E6001070B5012101432E4BCB1A2F2BB9
:100E300028D8EFF30583002B2BD0EFF3108C72B67C
:100E4000294A1268002AFBD0BFF35F8F274A0400AB
:100E5000244D641B64416243120D54B2244A9268CB
:100E60009B00D2588A421BD00022032A32D853005A
:100E70009B189B001B49CB189B795BB2A3421FD0E8
:100E80000132F2E7C7211B4B1B4A49001B4801F006
:100E9000CDFB92211A4B184AFF31184801F0C6FBCE
:100EA000134A92681749D150174B1A7882711C70F7
:100EB000BFF35F8F0C4B00221A608CF3108870BD5B
:100EC0000D005300991889006918FF268E710F4A8A
:100ED0008A80E9E7D1210E4B074A4900074801F013
:100EE000A5FBC0468C110020240100D0AAAA000056
:100EF00000ED00E0D8E6001014E7001038E500101F
:100F000000E70010CD010010EE1E002001BDFFFF24
:100F10000CE700100022044B02E0044902C3013236
:100F2000072AFAD97047C04600E400E0808080803C
:100F3000024B9C46614489000160704740000034C8
:100F400010B50400FFF7DCFD01002000FFF7F0FF03
:100F5000FF232371BFF35F8F10BD10B50400FFF7AF
:100F6000CFFD01002000FFF7E3FFFF2323710023E3
:100F70006371BFF35F8F10BD10B50C00CB68834267
:100F800007D108000B699847002809D020686168DC
:100F900010BDA821054B064A4900064801F046FB52
:100FA0000023E36000200021F2E7C046ACE8001017
:100FB000C0EA0010C0E8001070B505000C00080081
:100FC00000F092FE0949200000F0D2FDFFF798FDE5
:100FD000074B9C466044800068602C75D0231B063C
:100FE0001B786B75A400034BE55070BDFD1200101B
:100FF00040000034BC1C00200A4B1A68EFF310813B
:1010000072B61368002BFCD0BFF35F8F054B1B68D3
:10101000BFF35F8F00221A6081F3108840BF002069
:1010200000217047D01E002010B5002922D003688F
:101030001B7B99421ED8174B9C466144090183686B
:101040009C4661440C684968002A19D003681B7BE0
:101050009A4215D883680F488446624412019A1850
:1010600010685368020001208B4201D80ED0002086
:10107000C0B210BD084B094A3C21094801F0D6FA1C
:10108000054B064A3C21064801F0D0FAA242EFD8AF
:10109000EDE7C046FFFFFF0FF8E8001028EB001057
:1010A000C0E8001010B500291ED0037B99421BD860
:1010B0004B005B18033B0468A4466344002919D025
:1010C000002A1DD0914221D0002A25D0047BA242C3
:1010D00022D80468500080180338201881701978CD
:1010E00000291FD11A7010BD104B114A68211148F8
:1010F00001F09CFA104B114A6F310E4801F096FA3C
:101100000F4B0E4A70210B4801F090FA0D4B0B4A21
:101110007121084801F08AFA044B054A6821054804
:1011200001F084FA41701A70DDE7C0461CE9001036
:1011300094EB001038E9001084E9001070EB001007
:1011400090E900109CE9001070B506000D00140035
:10115000002914D0002A14D08068736898470028AA
:1011600006D0220029003000FFF79CFF280007E08E
:101170002A0021003000FFF795FF200000E010005A
:1011800070BD0800FCE70000F0B583B005000092D8
:1011900001930AAB1C780BAB1F78002C26D0036898
:1011A0005A7B944207D10123002B19D1002C3BD14B
:1011B000200003B0F0BD002C0CD01A7B944209D85B
:1011C0001A6863001B19033BD3189B78002BEBD0E4
:1011D0000123E9E73E4B3F4A68213F4801F026FAE8
:1011E0003E4B3F4A67213F4801F020FA03689C7B51
:1011F000002CDBD012D01A7B94420FD86200121957
:10120000033A19688C46624451789973002900D1D9
:10121000D9730023937053701370C7E72C4B2D4A7A
:1012200068212D4801F002FA002C3AD02B681B7B74
:101230009C4236D82C4BE3181B01AA6894466344A1
:10124000009A1A60019A5A60089A9A60099ADA60BC
:101250002E68002C2BD030D0337B9C422DD86300DD
:101260001B19033B32689446634400229A705A70FB
:101270001A70717B22003000FFF766FF70738442A2
:1012800000D095E7287D009A019B00F0B9FC061E6E
:1012900001D0002F17D00C9B002B00D188E71E70C7
:1012A00086E7124B124A3C210E4801F0BFF9114B60
:1012B000114AA521084801F0B9F9054B054A6821F2
:1012C000054801F0B3F92868210000F0D1FEE2E7FB
:1012D0001CE9001094EB001038E90010B4E900108C
:1012E000A0EB0010C0E80010FFFFFF0FF8E80010AF
:1012F00028EB0010BCE8001084EB0010F0B5DE46CF
:1013000057464E464546E0B58BB0099000230893FA
:101310008200B54BD658370052E0B44BB44A3F2157
:10132000B44801F083F9B44BB44A3C21B44801F00D
:101330007DF9002901D1002869D10021404600F043
:101340008DFEA04219D12A686B6806920793AB689C
:101350009846EB689A464346002B14D0002C18D0D0
:101360003B681B7B9C4214D8631EFA68D35C0893CD
:101370001B0218433861002015E0A24BA24A8E21BF
:101380009F4801F053F9A14B9F4A92219C4801F0DC
:101390004DF9994B9E4A4121994801F047F90023A4
:1013A0009A46984600207B68BFF35F8F00221A6040
:1013B00086F310884346002B32D1002800D10CE17F
:1013C00000F092FB02000B1EA7DB0020002106901C
:1013D00007917868EFF3108672B601680029FCD097
:1013E000BFF35F8F396888464C7B002CD7D09AD0EA
:1013F000097B8C4297D8874965182D01B9688C46BE
:10140000654428686968801A9941002991DD2A6835
:101410006B68099800F0F4FB00239A469846C2E7EF
:10142000089B1B022343994651461800C0470500FC
:101430000E007A68EFF3108B72B6136859424B4175
:10144000D9B2002BF9D1BFF35F8F002E1EDB002E27
:1014500046DD3B69002B47D04B456DD100F044FB86
:1014600002000B1E6EDB52197341002B70DB002B48
:1014700072DB0021049101310391029451460191E4
:10148000414600913800FFF77FFE4CE03B69002B9E
:10149000DDD04B4514D1069A079B521BB341002B5C
:1014A00014DB002B16DB002104910131039102941F
:1014B00051460191414600913800FFF765FE32E048
:1014C000554B514AA1214E4801F0B0F80122524239
:1014D000524BE6E7454B464A3F21464801F0A6F805
:1014E000002E01D1002DB4D13B68002C50D05A7B86
:1014F000944237D1012100294AD1DA7B002A4DD10B
:101500009A7B002A03D1DA7B002A5AD19C73DC73C0
:10151000002C5CD03B681B7B9C4258D8FA68013C8D
:10152000135D0133135500233B617A68BFF35F8F6E
:1015300013608BF3108843E7374B334AA4213048BC
:1015400001F074F8294B2A4A3F212A4801F06EF82D
:1015500001225242314B8AE7244B254A3F2125483C
:1015600001F064F8002C0DD01A7B94420AD8620076
:101570001219033A1868844662449278002ABAD055
:101580000121B8E7264B274A6821274801F04EF889
:10159000264B274AF621244801F048F8002A0AD0B1
:1015A000197B8A4207D851008A18033A19688C4679
:1015B00062445470A4E71A4B1A4A68211A4801F091
:1015C00035F81C4B1A4AFB21174801F02FF80A4B3B
:1015D0000F4A41210A4801F029F80BB0F0BCBB4684
:1015E000B246A946A046F0BDBC1C0020ECE70010A6
:1015F000F4EA001008E80010F8E8001028EB0010EA
:10160000C0E80010DCE900100CEB0010F4E9001059
:101610004CEB0010FFFFFF0F00EA0010FFFFFF7F01
:101620001CE9001094EB001038E900103CEA0010AF
:1016300060EB001060EA001010B50C4B5B68002BEB
:1016400004D00A210A48FFF773FC10BD074C2300A1
:10165000084A1021206800F011FC032000F038FA3D
:1016600003212000FFF7A8FCEBE7C046D4110020BF
:10167000D01E00202910001010B5064B5B68002B0F
:1016800001D0044810BD044B044A5E21044800F018
:10169000CDFFC046D411002074EA001034EB0010D6
:1016A000C0E80010F0B5DE4657464E464546E0B568
:1016B0008BB0804616001F00149B9A46159B9946D6
:1016C00016AB1B789B461F2302AA94466344002254
:1016D0001A702BE0002809D042461268127B904213
:1016E00004D8421E4146C9688A5C41E0404B414AE9
:1016F0004121414800F09AFF07984CE0361BAF416A
:10170000002F07DB002F11DA3C4B3D4A3F213D48BB
:1017100000F08CFF012676423B4FF3E7374B384A07
:101720003F21384800F082FF002F4FDB43465A68C4
:10173000EFF3108472B6136859424B41D9B2079146
:10174000002BF8D1BFF35F8F1F3302AA9446634486
:1017500004930023039302934B4601935346009353
:1017600032003B004046FFF70FFD031EB2D10200DE
:1017700041464968BFF35F8F00250D6084F31088F0
:10178000002B29D01F2302A98C4663441B78002B11
:10179000B2D112021043002B20D05B46002B1DD08B
:1017A0004946D04704000D0003000B431DD000291B
:1017B000A4DB00F099F906000F1EAFDB36196F416C
:1017C000002FB1DA012676420F4FADE70B4B0C4AE2
:1017D0003F210C4800F02AFF012040420BB0F0BC32
:1017E000BB46B246A946A046F0BD0798F6E7C046FC
:1017F000F8E800104CEB0010C0E80010ECE7001017
:10180000F4EA001008E80010FFFFFF7FF8B50400BD
:101810004268EFF3108572B6136858424341D8B25C
:10182000002BF9D1BFF35F8FCBB22268567BB34256
:101830001BD10120002848D0206988422BD0090AFA
:10184000C9B2002B2ED02068007B83422AD8581EB4
:10185000E668305C88422BD000206368BFF35F8F5E
:1018600000221A6085F31088F8BD002B0DD0167B7E
:10187000B3420AD85E00F618033E1768BC466644B9
:10188000B678002ED6D00120D4E7134B134A682136
:10189000134800F0CBFE9521124B134A4900134820
:1018A00000F0C4FE124B134A4121104800F0BEFE66
:1018B0001900100000F0DCFB0028CED132210E4BC5
:1018C000094AFF31094800F0B1FE23698B42C4D1B7
:1018D00000232361C1E7C0461CE9001094EB00100F
:1018E00038E9001098EA0010DCEA0010C0E80010A7
:1018F000F8E800104CEB0010BCEA0010F0B585B021
:101900000700100019000C9E13000B4301D10120A9
:101910000021B7600A9B3361306071600B9B73617B
:10192000CA1713005040040051400D00A41A9D41F5
:1019300000F0DAF802000B1E12DB12196B41002BCB
:1019400014DB002B16DB0121029101960C4900915A
:101950003800FFF7A7FEF060C043C00F05B0F0BD30
:10196000084B094A3F21094800F060FE012252421B
:10197000074BE6E7034B044A3F21044800F056FEBC
:10198000790F0010ECE70010F4EA001008E80010EE
:10199000FFFFFF7F70B584B005000C00EFF30583F7
:1019A000002B1ED1FFF768FE002302930193224B08
:1019B00000932A002300FFF775FE061E23DD20BFDB
:1019C000FFF75AFE3100FFF721FF1C4B5B6A9C4278
:1019D0002DD81A4A926AAA422CD29C4225D00120C4
:1019E00026E0164B5B6A994209D8144A926A8242F1
:1019F00007D2994201D001201AE0002018E000200F
:101A000016E0012014E00D4B5B6A9C4209D80B4A9A
:101A1000926AAA4207D29C4201D0012008E000202D
:101A200006E0002004E0012002E0002000E00020A9
:101A300004B070BD0120FBE7F90F00100040054025
:101A400070B5EFF305801038EFF3108C72B61A4BB7
:101A50001B68002BFBD0BFF35F8F01221300834074
:101A600016494B6316490B60164909780C00C440AF
:101A7000224214D0114A546A8200134D52599442A2
:101A800006D38200114C125999430E4B197007E08E
:101A90000A4A031D9B0099589950002200E0002239
:101AA000BFF35F8F044B002119608CF31088002A6C
:101AB00000D0904770BDC046280100D000400540CE
:101AC0003C700540F01E0020D41E0020281C002081
:101AD00010B50100024A0348FEF7E8FF10BDC046FA
:101AE000C0EB0010ED1E0020044B5B6A034A906AB5
:101AF0001900536A9942F9D17047C0460040054029
:101B0000084B5B6A01E0074B5B6A8B42FBD301E049
:101B1000044B5B6A8B4203D1024B9B6A8342F7D32F
:101B20007047C0460040054070B504000D00FFF747
:101B3000DBFF02000B0020002900801859418B4276
:101B400002D804D1824202D901204042C1170029A3
:101B500002DBFFF7D5FF70BD024B034A3F2103486C
:101B600000F064FDECE7001068EC001008E80010DD
:101B700070B504000D00EFF3108672B61B4B1B68A6
:101B8000002BFBD0BFF35F8F002D1CD02000FFF790
:101B900041F8174B83420BD019002000FFF742F8A1
:101BA00001212000FFF72EF80123A340114A136002
:101BB000A400114BE550BFF35F8F0C4B00221A605D
:101BC00086F3108870BDA2000B4B0021D15001227A
:101BD000A2400A490B7893430B7005492000FFF798
:101BE0004BF800212000FFF70DF8E4E7280100D0B2
:101BF000411A001038600540281C0020F01E00200B
:101C0000F0B5DE4600B584B00400150001921E0058
:101C10000293FFF769FF03958E4202D84ED18542A9
:101C20004CD9EFF3108B72B6274B1B68002BFBD0FF
:101C3000BFF35F8F254A17780125A540EBB23B43E0
:101C40001370234B5D63221D92000199D150A200B5
:101C50002049029850501B6A2B4212D11C4B1B6C1E
:101C60002B4208D00020BFF35F8F174B00221A6071
:101C70008BF3108823E0184B184AC521184800F050
:101C8000D5FCFFF731FF8E4214D802D1039B83426B
:101C900010D80E4B1B78BB420ED00D4B1D625D63FE
:101CA0001F2004400123A3400E4A1360074B1F70FE
:101CB0001E38D8E70020D6E70120D4E7012004B081
:101CC00080BCBB46F0BDC046280100D0F01E0020FD
:101CD00000400540D41E0020E4EB00104CEC001046
:101CE00008EC001080E200E0EFF3108C72B60B4BB2
:101CF0001B68002BFBD0BFF35F8F01238340084A92
:101D0000136208490A789A430A70BFF35F8F034B46
:101D100000221A608CF310887047C046280100D05A
:101D200000400540F01E002010B500291ED0037BA6
:101D300099421BD84B005B18033B0468A4466344DC
:101D4000002919D0002A1DD0914221D0002A25D087
:101D5000047BA24222D8046850008018033820185F
:101D60008170197800291FD11A7010BD104B114ACB
:101D70006821114800F05AFC104B114A6F310E488F
:101D800000F054FC0F4B0E4A70210B4800F04EFC43
:101D90000D4B0B4A7121084800F048FC044B054AE2
:101DA0006821054800F042FC41701A70DDE7C0462A
:101DB0001CE9001070ED001038E9001084E90010F3
:101DC0005CED001090E900109CE9001070B5060071
:101DD0000D001400002914D0002A14D08068736804
:101DE0009847002806D0220029003000FFF79CFF0A
:101DF000280007E02A0021003000FFF795FF2000AF
:101E000000E0100070BD0800FCE7000010B50023E2
:101E1000437301338373037BC3730123027B9A42B1
:101E200014D9002B0CD0027B934209D85A00D21847
:101E3000033A01688C4662440133DBB25370EDE72C
:101E40000B4B0C4A68210C4800F0F0FB002A09D02B
:101E5000924207D8016853009A18033A8A1800235F
:101E6000537010BD024B034A6821034800F0DEFBAB
:101E70001CE9001070ED001038E9001010B5017376
:101E800042608360FFF7C2FF10BD000070B5040020
:101E9000081E00D170BD002934D0237B994231D86F
:101EA0004B005B18033B2268944663445A78002A2F
:101EB000F0D02DD0237B9A422AD853009B18033BA5
:101EC00021688C4663445D7800215970002825D034
:101ED000237B984222D843001B18033B21688C4681
:101EE00063440021597001002000FFF76FFF0600D6
:101EF00029002000FFF7CAFF020031002000FFF791
:101F000065FFC7E7084B094A6821094800F08EFBC6
:101F1000054B064A6821064800F088FB024B034A3D
:101F20006821034800F082FB1CE9001070ED0010EE
:101F300038E9001070B505000C00160000292FD0FC
:101F400034D0037B994231D84B005B18033B0268C5
:101F5000944663445A78002A2ED19A78002A31D1C7
:101F60001978FFF793FF0300002E0AD0EA7B002ABE
:101F70002ED1AA7B002A03D1EA7B002A3BD1AC7385
:101F8000EC73002B3DD1002C4FD02B7B9C424CD8C6
:101F90002B6861000C19033C1C190023637070BD91
:101FA000254B264A3821264800F040FB254B264A7F
:101FB0006821264800F03AFB254B204A3A21204868
:101FC00000F034FB234B1D4A3B211D4800F02EFB43
:101FD000002A0AD0297B8A4207D851008A18033A7E
:101FE00029688C4662445470C3E7164B164A682130
:101FF000164800F01BFB184B104A4221104800F015
:1020000015FB002B0BD02A7B934208D843001B18EA
:10201000033B2A689446634400229A70B3E7094B55
:10202000094A6821094800F001FB064B064A68216D
:10203000064800F0FBFAC04680EC001048ED0010A6
:1020400088EC00101CE9001070ED001038E9001059
:10205000C4EC0010ECEC001060EA001070B5040055
:102060000A00457B2900FFF765FF6073280070BDFB
:1020700070B50400002967D0437B8B420ED0002945
:1020800011D0037B99420ED84B005B18033B0268CA
:10209000D0188378002B0CD1002056E00121FFF7E7
:1020A000DDFF012051E0294B294A6821294800F031
:1020B000BDFA002B20D0227B93421DD85A00D318A2
:1020C000033B2268D2182568EB5C8B421AD0002BA8
:1020D0001BD0227B934218D85A00D318033B2268A6
:1020E000D21853788B4216D0002BF0D11A4B1B4AD2
:1020F0006B211B4800F09AFA144B154A68211548C9
:1021000000F094FA4378137007E0104B104A6821EE
:10211000104800F08BFA43785370002383704370AB
:1021200001222000FFF706FF0200617B814205D0FB
:102130002000FFF74BFE6073012006E0094B074AC1
:102140007121074800F072FA002070BD1CE90010F0
:1021500070ED001038E900100CE7001030ED0010B1
:1021600088EC001010ED001070B504000D00062082
:1021700000F07EF9C000290001F01EFCC60908D05D
:102180000E4B9E4217D87F23184001303500460879
:1021900000E001256562A6622C34802080010443A2
:1021A00000232360062000F063F98000A90189194B
:1021B00001F002FC70BD0026014DEBE7FEFF0000C0
:1021C000FFFF0000002909D00A22064B9C4660440C
:1021D000434258414000044BC25270478022520093
:1021E000F3E7C0460080FCBFE41E002070B5050088
:1021F0000C00062000F03CF9002829D0164B9D4227
:1022000027D08022D203154B1A60154B1A60154B4C
:102210009B6811009943FAD100212800FFF7D2FFF3
:1022200021002800FFF7A0FF2C002C34E96A60226F
:102230004A406E21114080225201224311600A4B14
:102240002B6380239B01234310221A600323AB647A
:1022500070BD80221204D6E70080034000E00040F9
:1022600000F0004000C0004001030000F8B5DE4669
:1022700057464E464546E0B505000F0092460A9A7D
:1022800093424ED31A0E91461E020A9A0023300042
:10229000494601F0CFFB80466C006419A4002F4B27
:1022A0009C4664446368834200D260602B1FDBB2AB
:1022B0009B46012B3BD9C0239B0123438022120163
:1022C0001A60AB00264A9958002905D0506901F0E0
:1022D00073FB01300138FDD153465A0123685A403F
:1022E000E0231A4080235B0123431A605A46012AE7
:1022F00028D980239B012343802212011A60434680
:102300006360424600233000494601F093FBAD0074
:10231000134B58510120F0BCBB46B246A946A0461B
:10232000F8BD104B104A2D21104800F07FF9012F05
:10233000C1D1C0239B01234303221A60A368DB079A
:10234000FCD5C9E72168794003220A401A60A268D7
:102350000123BB401342FAD0CBE7C04600800040C7
:10236000401C00207CED0010D4ED001090ED00101A
:1023700030B583B00C2000F017F9FEF777FB00288A
:102380000DD0002304E099002D4A2E4888500133D7
:10239000092BF8D92A4B2C4A5A6203B030BD2B4B7B
:1023A00000229A6700F008F9294B01221A60274B96
:1023B0005B6C012BFBD1274B03221A60234B9B6BD9
:1023C000012BFBD1013300930433234A012123481D
:1023D00000F054F805230093214A0121214800F020
:1023E0004DF8214B0093002202210420FFF73EFF0D
:1023F0001E4D00952B00002201210520FFF736FF1E
:10240000104C00942300002200210720FFF72EFF2C
:1024100000942300002200210820FFF727FF0A4B29
:1024200000932300002200210920FFF71FFF0095E1
:102430002B00002200210620FFF718FFADE7C04661
:10244000401C0020006CDC021BB700000080004034
:102450003CB0004030B00040002F6859008002407E
:10246000008C864700C00240001BB700405973072C
:102470008000014BC0587047401C0020F0B5C64694
:1024800000B504000D00170098460C2001F094FAE6
:102490000600394BFA18394B9A4241D843011B1AAE
:1024A0009901C91AC90009188901380001F084FA94
:1024B0000200103A98235B009A4237D84346013B0A
:1024C000062B39D8069B013B062B35D83F09B7426E
:1024D00038D343461E04069B1A0316432368002B79
:1024E00036DB274B9C4244D080225201254B1A6098
:1024F000254B1A60254B9B6811009943FAD1256042
:10250000A060231DC02292011A4321231360236877
:10251000002BFCDAE6600823136080BCB846F0BDEF
:102520001B4B1C4A11211C4800F080F81B4B194A18
:102530001921194800F07AF8194B164A1C2116483F
:1025400000F074F8174B134A2321134800F06EF87B
:1025500022683F231340AB42C3D1A3681B051B0D68
:102560008342BED1E368EE22D2021340B342B8D117
:10257000D3E780229201B9E780E84BD380F8A932F3
:1025800000C0024000E0004000F0004000C00040F9
:10259000E4ED001008EF001044EE001084EE00108F
:1025A000A0EE0010ECEE001080239B000343014AD4
:1025B000D362704700800540064BAA2212011A60C0
:1025C0002F22DA60044B054A1A60024B5B68002B2D
:1025D000FBDA7047004002400060024000B0FA00A1
:1025E00000BEFDE703000A4A1268002A08D0084A24
:1025F0001068C318074A9A4206D3054A1360704709
:10260000034A05491160F2E701204042F7E7C0465E
:10261000B41C002000000420F41E0020002070479D
:1026200001204042704710B5FFF7DAFF10B582B0C5
:102630000C001900002A0CD0084B002A0BD0019284
:10264000009323000200064801F0A2FF0120FFF7DB
:10265000C7FF044BF1E7034AF1E7C04614EF00104F
:1026600024EF001020EF001070B52B4B2B4A1A609E
:102670002B4B2C4A1A602C4B9A682A4B9343FAD165
:102680002A4C01E008CC9847294B9C42FAD3FFF72B
:102690006FFE234B274A1A60234B9B68DB43DB0109
:1026A000FAD1254B40229A675A671A67DA66234C9B
:1026B00009E0234B234A86212348FFF7B7FF200078
:1026C000FEF73EFC0834214B9C4209D22368002BC4
:1026D000F5D0012BEDD12000FEF73FFC0834F2E7E6
:1026E0001B4CA1681B4DC022280001F07BFDA5609A
:1026F000EFF30583002B00D000BEFEF7F1F9FEF7E3
:1027000009FCFEF799FF144C01E008CC9847134BE5
:102710009C42FAD370BDC04600E00040BFCDFBFE36
:1027200000F00040FE7F3C0000C00040981A0020EE
:10273000A81A0020FFFFFF0100F00140901A0020BE
:1027400054EF0010C8EF001074EF0010981A00202A
:1027500000ED00E000000020A81A0020B01A0020C0
:102760000FB400B583B0084801F0E2FE049B002BD3
:1027700007D005A90191180001F0EAFE034801F015
:10278000D7FE0120FFF72CFFB8EF001070F5001006
:102790009A4200D288547047704710B5002802D082
:1027A0000B684968984710BD0100002007E08300CE
:1027B0001B185B00501C08601078C01830380A687D
:1027C0001378303BDBB2092BF1D97047F0B5DE4608
:1027D00057464E464546E0B583B093461F000C9BD6
:1027E0009A460D9C0E9B99460F9B9B0703D0B846BB
:1027F0000F00060022E00192A34688464E46B946E5
:102800000700B44207D2551C4B4641462020B8472A
:1028100001342A00F5E73D004F465C46019B9B468C
:10282000B1464646B84637002E0007E0013C551C2D
:102830005346185D43463900B0472A00002CF5D1B5
:1028400035003E0047460F9B9B0707D4100003B09E
:10285000F0BCBB46B246A946A046F0BDB0464E46C7
:10286000B9462F005D46531BB342EFD2541C4B4672
:1028700041462020B8472200F5E7F0B5CE4647464E
:1028800080B585B0944698460C9D0D9C0EAB1B7888
:102890009946109A119B129EB7071CD4002B0CD09E
:1028A000F7070AD54F46002F02D10C37374204D024
:1028B000013B02E030272F550134944201D21F2CF6
:1028C000F8D9F70707D59C4205D21F2C03D830272B
:1028D0002F550134F5E7F70615D5770505D4002CFB
:1028E00003D0944224D09C4222D00F9A102A2BD09D
:1028F0000F9A102A30D00F9A022A35D01F2C02D8F6
:1029000030222A5501341F2C05D84A46002A31D0DE
:102910002D222A55013403960293019400954346D3
:102920006246FFF753FF05B0C0BCB946B046F0BDE4
:10293000621E012C06D00F9F102F01D01400D4E787
:10294000023CD2E71400D0E7B206D1D41F2CCFD876
:1029500078222A550134D1E7B206CCD51F2CCAD82B
:1029600058222A550134C9E71F2CC7D860322A558E
:102970000134C3E7720703D52B222A550134CAE775
:102980003207C8D520222A550134C4E7F0B5DE4607
:1029900057464E464546E0B593B081468A46089272
:1029A00009931CAB10CB1B789B461E9D219B984620
:1029B000002C03D1102342469A4390468023DB002B
:1029C00046461E4042461A4212D0002C22D0002613
:1029D0000EE03033D9B2771C0AAB9955290020009C
:1029E00000F0EAFFAC4216D31F2F14D83E000400BB
:1029F0002900200000F0E0FFCBB2092BE9D94246C4
:102A0000920605D54121C918C9B20A39C9B2E2E70F
:102A10006121F8E7270043460693209B05931F9BFF
:102A2000049303955B46029301970AAB0093099BBD
:102A3000089A51464846FFF720FF13B0F0BCBB464A
:102A4000B246A946A046F0BDF0B5DE4657464E4612
:102A50004546E0B595B0089009910A920B931E9EE9
:102A60001F9C20AB1B789B46229B9946239D269B4F
:102A70009A463300234303D1103352469A43924679
:102A80008023DB0057461F4052461A4219D03300BC
:102A900023432DD0002714E03033DAB27B1C984654
:102AA0000CABDA554A462B003000210000F0C2FF83
:102AB000A5421FD819D043461F2B1BD847460600F6
:102AC0000C004A462B003000210000F0B3FFD3B2C7
:102AD000092BE1D95246920605D54122D218D2B22D
:102AE0000A3AD2B2DAE76122F8E7B145E3D901E068
:102AF0000023984653460693259B0593249B0493F5
:102B00004B4603935B460293434601930CAB009301
:102B10000B9B0A9A09990898FFF7AFFE15B0F0BC15
:102B2000BB46B246A946A046F0BD0000F0B5DE4661
:102B300057464E464546E0B591B083468A460C92CC
:102B400098461A9C08941B9D099522002B00200092
:102B5000290001F0EAF9002800D0E5E00122524204
:102B6000D74B2000290001F0DBF9002800D0DBE082
:102B700001225242D34B2000290001F0BBF900286A
:102B800000D0D1E000220023089E3000099D2900DA
:102B900001F0B0F9002800D0DDE00898099906900E
:102BA00007918023DB001E9A1A400D921E9A1A424A
:102BB00001D106231C930698079904000D000A0012
:102BC0000600024300D1D1E0080D4005400DBE4C87
:102BD000A44660440A03120BBC4B13431F0001F0D0
:102BE000B7F9BB4ABB4B01F046F9BB4ABB4B01F0FE
:102BF00023F904000D000022B94B3000390001F028
:102C000016F9B84AB84B01F036F902000B00200063
:102C1000290001F011F901F0B3F9814601F098F9AA
:102C200004000D00B14AB24B01F025F90022B14B6E
:102C300001F002F901F0A4F90600AF4AAF4B200001
:102C4000290001F018F904000D00300001F080F9AE
:102C5000AB4AAC4B01F00FF902000B002000290039
:102C600001F0E5F804000D0002000B0001F003F98B
:102C70000A900B91A44BF31800261F0522002B008D
:102C80002000290001F0D8F80E900F9122002B00AF
:102C900000208021C90501F0CAF804000D000022BF
:102CA0009A4B0A980B9901F0CCF80022984B01F04E
:102CB000C3F802000B000A980B9901F0C2F8002239
:102CC000944B01F0B9F802000B000A980B9901F03F
:102CD000B8F802000B002000290001F0ADF8020056
:102CE0000B000E980F9901F0ACF80022774B01F021
:102CF000A3F832003B0001F0BEF806000F0004000C
:102D00000D00069A079B01F00BF9002830D0012333
:102D10005B429C46E14400227D4B3000390001F0CB
:102D200090F804000D0023E01E9B04931D9B039369
:102D30001C9B0293089A099B0092019343460C9AAC
:102D40005146584600F0FCF811B0F0BCBB46B24604
:102D5000A946A046F0BD00230024069307940696DA
:102D600080231B069C46654407951AE70023994675
:102D70004B466333C62B1ED804261E9B1B0526D547
:102D80002B0023430FD0644A644B0698079901F047
:102D9000BFF8002879D00022614B0698079901F00E
:102DA000A9F8002871D01C9B4B4506DD4A46981AAD
:102DB000431E1C9303E00526DFE700231C938023BA
:102DC000DB001E9A1A431E920026002399461D9B83
:102DD0009E4264D29F1B02231E9A1A400A921E9A98
:102DE000134202D0002E00D000274B46002B07D004
:102DF00022002B000698079901F023F8069007910E
:102E0000002200230898099901F074F8002848D19D
:102E1000444B1E9A1340049303971C9B0293069BFA
:102E2000079C0093019443460C9A5146584600F083
:102E300087F8002E00D187E71E9B9B063DD54525D0
:102E4000441C4346020051462800D8474B46DA1737
:102E50009B18534005220592013E049600220392DE
:102E60000A3202924A46D00F019000934346220054
:102E700051465846FFF78AFD0A9B002B00D163E7B5
:102E800002005F460C9E1D9D54E01C9B002B9ED0B3
:102E90000D9B002B9BD01C9B013B1C9397E70027AD
:102EA00099E7069C079D22002900802000068446A1
:102EB00061440B0006920793AAE76525C0E7C04668
:102EC000FFFFEF7FFFFFEFFF01FCFFFF0000F03F80
:102ED000FB799F501344D33FB3C8608B288AC63F09
:102EE0000000F83F61436F63A787D23F71A3790960
:102EF0004F930A400000E03F1655B5BBB16B02404E
:102F0000EF39FAFE422EE63FFF03000000002C409E
:102F100000002440000018402D431CEBE2361A3F0D
:102F200080842E41FFF7FFFF541C4346514620206A
:102F3000B8472200931BAB42F6D3100004E7C0460B
:102F4000F0B5DE4657464E464546E0B595B006908C
:102F5000079193469946209F1E9A1F9B10001900C7
:102F600000F0E3FF002831D101225242BF4B1E98EE
:102F70001F9900F0BFFF002837D101225242BC4BFD
:102F80001E981F9900F0CCFF00283DD10022B94BBC
:102F90001E981F9900F0C4FF002850D10022B64BA4
:102FA0001E981F9900F0A6FF002848D10022002398
:102FB0001E981F9900F09EFF002850D100239846CC
:102FC000229B5B0500D4B6E0002458E0229B0393CB
:102FD000219B029303230193A84B00934B465A462F
:102FE00007990698FFF7F2FB0EE1229B0393219BC2
:102FF000029304230193A24B00934B465A46079930
:103000000698FFF7E3FBFFE00423229A1A40229977
:103010000B4210D09B4B002A0FD00422229903911F
:1030200021990291019200934B465A4607990698BE
:10303000FFF7CCFBE8E0944BEDE70322EEE7229BA1
:103040000493219B039302971E9B1F9C0093019462
:103050004B465A4607990698FFF768FDD4E01E9A3A
:103060001F9B0020002100F0E2FE1E901F91012313
:103070009846A5E70CAB30221A55013F01341F2CAE
:1030800001D8092FF6D81E981F9900F079FF050086
:1030900000F05EFF02000B001E981F9900F0C7FEB3
:1030A000FA007A4B9B181A685B680A920B9300F03F
:1030B000E2FE0890099100F087FF060000F044FF4F
:1030C00002000B000898099900F0B1FE08900991E0
:1030D00000226F4B00F024FF00282ED00136300074
:1030E00000F032FF02000B000A980B9900F008FF75
:1030F000002801D001350026002F2CD1280000F037
:1031000027FF02000B001E981F9900F090FE06009A
:103110000F0000225E4B00F0EDFE002846D1002299
:103120005B4B3000390000F0FBFE00283ED1EB077E
:103130003CD501353AE0062746E70022544B089873
:10314000099900F0D7FE0028D6D1002E01D0F30750
:10315000D2D50136D0E7AA461F2C11D8013F0A214B
:10316000300000F029FC651C30310CAB19550A21E8
:10317000300000F021FC092E0ED906002C00EBE7F0
:1031800055461F2C0CD87B1E002F09D00CAA3021CD
:1031900011551F000134F4E72B0055461C00F0E7E1
:1031A0001F2C03D80CAB2E221A5501341F2C10D81B
:1031B0000A21280000F0D8FB661C30310CAB1955F1
:1031C0000A21280000F0D0FB051E01D03400EDE7F5
:1031D00034000323229A1340012B1CD01F2C06D845
:1031E0004346002B32D00CAB2D221A550134229BC2
:1031F0000393219B029301940CAB00934B465A46D8
:1032000007990698FFF7E2FA15B0F0BCBB46B24644
:10321000A946A046F0BD219B002B13D04346002BAE
:1032200002D10C3313420FD0219B013B2193190093
:1032300003E00CAB30221A5501348C42CED21F2C45
:10324000F7D9CBE72199F8E72199F6E7229B5B07AD
:1032500004D50CAB2B221A550134C8E7229B1B075F
:10326000C5D50CAB20221A550134C0E7FFFFEFFF94
:10327000FFFFEF7F65CDCD4165CDCDC1E4EF0010FF
:10328000E8EF0010DCEF0010D8EF0010D0F10010D4
:103290000000E03FF0B5DE4657464E464546E0B5F5
:1032A00093B082468B4690461193002900D1EBE201
:1032B00000275546119B1878002800D1E7E2252801
:1032C00009D07C1C43463A005946A847119B01335C
:1032D00011932700EEE7013311930024119A11781E
:1032E0000B00203BD8B2102803D88300D048C35825
:1032F0009F460B00303BDBB2092B2CD92A292FD05B
:1033000000230A93119B1A782E2A39D000239A465B
:10331000119A1378683BD9B2122976D88B00C54927
:10332000CB589F4601231C4301321192D6E702235A
:103330001C4301321192D1E704231C430132119244
:10334000CCE708231C4301321192C7E710231C432A
:1033500001321192C2E711A8FFF726FA0A90D1E7CD
:103360001C9B1A1D1C921868002804DB0A90119BF4
:1033700001331193C6E702231C4343420A93F6E745
:103380008022D20014435A1C11925A781300303B09
:10339000DBB2092B04D92A2A07D000239A46B7E7C3
:1033A00011A8FFF701FA8246B2E71C9B1A1D1C9276
:1033B0001868002804DB8246119B01331193A7E7AC
:1033C0000020F8E780235B002343511C11915278C1
:1033D0006C2A01D01C0018E0C0239B001C43013163
:1033E000119112E080232343511C11915278682AD5
:1033F00001D01C0009E0C0231C430131119104E0FD
:1034000080235B001C4301321192119B187803004A
:10341000253BDAB2532A00D92CE29300864AD358CE
:103420009F4680239B001C4301321192EDE78023CD
:103430005B001C4301321192E7E7782809D0582835
:1034400038D06F2838D0622838D010239C430A2601
:1034500000E01026582833D0692803D0642801D012
:103460000C229443630501D50122944369282AD094
:10347000642828D0A30500D59FE0E30500D5B8E077
:10348000630600D4CAE01C9A111D1C911168FF222A
:103490000A4005940A9B0493534603930296002323
:1034A0000193009243463A0059462800FFF76EFA0E
:1034B000070027E01026CDE70826CBE70226C9E75C
:1034C00020221443C8E7A30520D4E30550D46306A3
:1034D00066D51C9A111D1C911168FF220A40D31752
:1034E000D118594005940A9B0493534603930296BE
:1034F000D20F0192009143463A0059462800FFF747
:1035000045FA0700119B01331193D3E61C9BDA1D8A
:1035100007218A43110008311C91116853689C46A9
:10352000DB170C930D930C9A0D9B100048400E90E6
:10353000624653400F930E980F990C9A0D9B801A78
:1035400099410E900F9108940A9B07935346069356
:103550000496002305936346DA0F029200900191CE
:1035600043463A0059462800FFF76EFA0700C9E7BC
:103570001C9A111D1C911268D317D118594005943B
:103580000A9B0493534603930296D20F0192009133
:1035900043463A0059462800FFF7F8F90700B1E71B
:1035A000230605D51C9A111D1C910023D25E96E7B7
:1035B0001C9A111D1C91126891E71C9BDA1D0721B2
:1035C0008A43110008311C9108940A9B07935346C3
:1035D000069304960023059302931368546800939E
:1035E000019443463A0059462800FFF72DFA070098
:1035F00088E71C9A111D1C9105940A9B049353465D
:1036000003930296002301931368009343463A0004
:1036100059462800FFF7BAF9070073E723060DD5CE
:103620001C9A111D1C9112681204120C31E7C0463D
:10363000F0EF001034F0001080F000101C9A111D03
:103640001C91126825E746281AD01C9B07330722D5
:1036500093431A0008321C9204940A9A0392524629
:1036600002925C681B680093019443463A005946F5
:103670002800FFF765FC0700119B0133119319E641
:1036800020231C43E1E7672801D0472802D180238B
:103690001B011C43452801D0472801D120231C438E
:1036A0001C9B0733072293431A0008321C92049490
:1036B0000A9A0392524602925C681B680093019436
:1036C00043463A0059462800FFF730FA0700119B9D
:1036D00001331193EEE502231A0022409246234261
:1036E0001FD001241C9B1A1D1C927A1C914618782D
:1036F00043463A005946A8475346002B16D1119B22
:10370000013311934F46D5E5561C434659462020B8
:10371000B847230032005C1C9D42F5D83D001700DD
:10372000E0E701233A002F000A9DF4E74A46A94644
:103730000A9D06E0571C434659462020C8473400DE
:103740003A00661CA542F5D84D469146D7E71C9B2A
:103750001A1D1C921B6899465346002B00D1013B51
:103760004E4601E0013613003278002A02D05A1E7C
:10377000002BF7D14B46F21A10928023DB00260073
:103780001E401C4203D0524501D9534610930223D8
:103790001A0022400B92234205D03A0037004C46D3
:1037A000A946554620E03A00109B5F46B3462E00DE
:1037B00006E0551C434639002020B04723002A006C
:1037C0005C1C0A999942F4D835005E46BB461094B9
:1037D00037004C46A946554606E01D000134561CEC
:1037E00043465946C84732002078002804D0002FAD
:1037F000F4D06B1E002DF0D117004D460B9B002B13
:1038000003D1119B0133119354E50A9F109B06E0ED
:10381000561C434659462020A847230032005C1C12
:103820009F42F5D81700ECE721231C431C9B1A1D6F
:103830001C921B680093059408230493534603933A
:10384000102302930023019343463A00594628006F
:10385000FFF79CF80700119B013311932AE57C1CAC
:1038600043463A0059462520A847119B013311933E
:1038700027001FE57C1C43463A005946A847119B88
:1038800001331193270015E50A4B9A4610E5AA4625
:10389000474502D343465A1E00E03A004346594684
:1038A0000020D047380013B0F0BCBB46B246A94652
:1038B000A046F0BD992700100EB410B585B00100E8
:1038C00007AC08CC03940122009452420348FFF74E
:1038D000E1FC05B010BC08BC03B0184791270010EC
:1038E00000B585B0029003910121009313004A4274
:1038F00002A90248FFF7CEFC05B000BD9B270010CF
:1039000001480421014B18470012002031390010F2
:1039100010B5010018231B8814221088984710BD89
:1039200010B5010018231B8816221088984710BD77
:10393000F0B5C64600B507000E00002501239846E5
:1039400000E00135B5420AD2AC003C192068FFF70F
:10395000DFFF20600028F4D100239846F1E74046BD
:1039600080BCB846F0BD0000124A936F9B0815D288
:103970009066D166002905D0FFE7FFE7FFE7516FAA
:10398000106F704704B580210906C2175140002806
:1039900000D0C8430AF09CFB002104BDF0B5146EB2
:1039A000556E576F166FFFF7E3FF1466556657673E
:1039B0001667F0BD000000D0114A936F9B0813D228
:1039C00010665166002905D0FFE7FFE7FFE7516F5A
:1039D000106F704704B5002801D00020C0430AF0E2
:1039E00077FB002104BDC046F0B5146E556E576FCD
:1039F000166FFFF7E5FF1466556657671667F0BD4B
:103A0000000000D094464A4A926F9208624601D262
:103A100028E0C046F0B5464E346E756E776F366F4F
:103A200000F020F89446424A1466556657671667B8
:103A30006246F0BD94463E4A926F9208624601D2B9
:103A400054E0C046F0B53A4E346E756E776F366FFF
:103A500000F04CF89446364A146655665767166768
:103A60006246F0BD002B24DB11D000293EDA00B500
:103A7000C943404200D1013100F038F8C943404207
:103A800000D10131DB43524200D1013300BD002A95
:103A9000EBD1002801D1002905D00020C90FC907AA
:103AA00001D1C043410800B50AF0EAFA0022002320
:103AB00000BD00B500290ADBDB43524200D10133CF
:103AC00000F014F8C943404200D1013100BDC943A0
:103AD000404200D10131DB43524200D1013300F0BA
:103AE00005F8DB43524200D1013300BD002923D148
:103AF000002B18D1002A0CD0BC460D4F38667A66D0
:103B000000210023FFE7FFE7FFE77A6F386F674682
:103B10007047002801D00748010000B50AF0B0FA4C
:103B20000022002300BD02000B000020002170478E
:103B3000000000D0FFFFFFFF002B00D0BFE0130C00
:103B400028D1002AE7D080B4114F39667A66FFE7A2
:103B5000FFE730B4040C7B6F396F1B0423433B66D3
:103B60007A66FFE7FFE7FFE7C04684B27B6F3D6FF1
:103B70001B0423433B667A66FFE7FFE7C04600234A
:103B80002C042D0C7A6F386F00196941B0BC704756
:103B9000000000D0F0B594460025140E01D11202A9
:103BA0000835140F01D112010435940F01D1920090
:103BB0000235D40F01D152000135D40B0134254F09
:103BC0007C66254C3C660E0C93B2FFE7FFE7FFE7EF
:103BD0003C6F6643360C7703BE467343DF0B5B04D2
:103BE000C01AB941130C7343DB18C91ACE086643D7
:103BF000360CB64493B273431F0F1B01C01AB94170
:103C0000130C73431F0B1B05C01AB941860D8F029D
:103C10003E436643360C092D24DB520A7243801A58
:103C20007703460A6643360C16235B1BDE40DF40F3
:103C3000BF1964466643821B704604350633010093
:103C4000D940A840C01900D30131A24206D20023B6
:103C5000F0BD0000000000D0FFFFFFFF121B01308D
:103C6000F3D3F1E709277F1BFE406446A2B27243FB
:103C7000801A00D20139220C7243130C1204821AEA
:103C800099410B007046043513370100F940A840F4
:103C9000801900D30131002B02D1A2420AD2F0BD1B
:103CA000013000D30131121BFAD2013BF8D1A242FC
:103CB00000D2F0BD013000D30131121BF7E7F0B59F
:103CC0001C0C00D080E00CB400251C0A04D11B029F
:103CD000160E3343120208351C0B04D11B01160FBC
:103CE0003343120104359C0B04D19B00960F3343E0
:103CF00092000235DC0B02D192185B4101351C00A9
:103D0000971864410134464F7C66464C3C660E0C65
:103D1000FFE7FFE7FFE7C0463C6F6643360C7703DB
:103D2000BE4697B27743C01B00D20139C01B00D2F8
:103D300001399FB27743C91BC91B170C77437E0417
:103D4000FF0B801BB941CE086643360C0C2D33DBCC
:103D5000B644120B1F053A431B0B97B27743C01BA7
:103D600000D201399FB27743C91B170C77433E0439
:103D70003F0C801BB941860D8F023E4366432927C5
:103D80007F1BFE400C3D7746AF40BF1930BCA2B24E
:103D9000ABB272437343801A9941220C7243130CE5
:103DA0001204801A994102000B000137001BA9413F
:103DB000F9D2781E0021F0BD0C277F1BFE4077460C
:103DC0007F0BAF40FF19E0E700245D1C07D0144FC4
:103DD0007D663966FFE7FFE7FFE7FFE73C6F95B2D7
:103DE0009EB265436643401BB141150C1E0C6543F2
:103DF000664336042F0C3E432D04401BB1419942CB
:103E000004D202000B0020000021F0BD01D190423D
:103E1000F7D3801A994101349942F2D3F6E70000B2
:103E2000000000D0FFFFFFFF48404140484018B469
:103E3000134B5B68019308BD18B4114B1B680193C9
:103E400008BD94460F4A926F920805D2624618B494
:103E50000B4BDB68019308BD0A4AF0B5146E556E32
:103E6000576F166F6246FFF7F2FF064A14665566F3
:103E700057671667F0BD18B4014B9B68019308BDE6
:103E8000CC1C0020000000D0FFB550404240504004
:103E900059404B40594000E0FFB5154F4C00640DB0
:103EA00003D0BC4204D10C0314D80020090D09052D
:103EB0005C00640D03D0BC4204D11C030AD800226C
:103EC0001B0D1B0501264B4009D44B4003D58B42EB
:103ED00000D18242FFBD9942FCD19042FFBD0B430D
:103EE000DB1803431343F5D0C9434918FFBD000055
:103EF000FF07000000B5FFF7CFFF804100BDC046BF
:103F000000B5FFF7C9FF01D9002000BD012000BDA9
:103F100000B5FFF7B9FF01D9002000BD012000BDA9
:103F200000B5FFF7B1FF804100BD012040054A0008
:103F3000121804D85A00121801D800207047012026
:103F400070470020704700000021002805D170470D
:103F5000C1174840401AFAD0C90713B5064B1B6871
:103F600098470CBC441CA2401005120B0349091BC6
:103F700009051943114310BDCC1D00201F0400008A
:103F800010B54C00620D8023D218DB00D21A5B05FD
:103F90007E2A10DD9E3A13DACC170903490819432B
:103FA0005242D140640001341532202A05DAD04053
:103FB0000843604310BD002010BD0846604310BD9B
:103FC000C80FC018013810BD18B4024B5B6A0193CA
:103FD00008BD0000CC1C002010B50148FEF7C0FB56
:103FE00020F2001070B513231C78012C14D0012C82
:103FF00014DC022C02DC1F4A1F4B9A641F48FFF797
:1040000087FC1F4B186070BD99001E481A4A8850E3
:1040100001331F2BF8D9EAE70023FAE71A48FFF724
:104020007FFC05001948FFF77BFC023803789B00F2
:104030007F2B19DD802229000F4800F0D3F8022CD5
:10404000D7D1134B1A88B5231B029A4209D1114BC1
:104050001A88114B9A4204D1104B1A88104B9A427D
:10406000C7D00020FEF77CFB0E4B0F4A32210F48D1
:10407000FEF7DCFAB1400010CC1C00204C330000ED
:10408000CC1D0020D93F00105344000053460000CF
:1040900054380000D8380000494600009C38000021
:1040A0005946000038F20010E4F2001098F20010B7
:1040B00007B56046002800D100BE01880A0A023018
:1040C000DF2AFAD1C9B2820804D3028840880004EA
:1040D000104300E00068024A5050039007BD000002
:1040E000CC1C002010B50148FEF73AFB20EF001071
:1040F00070B513231E781848FFF712FC0500012E37
:1041000011D0012E09DDAB1E1B789B007F2B1DDD1E
:1041100080222900114800F065F81148FFF7F8FBEC
:10412000104B186070BD542201000C4800F05AF882
:10413000002300E001331F2BE3D89A00074C1259EB
:10414000002AF7D19A0008481051F3E7074B084AB4
:1041500042210848FEF76AFA53460000D01D0020AD
:104160004C330000CC1D0020E5400010F8F2001098
:1041700074F300102CF3001010B5040008F08AFB53
:10418000002804D00419034B9C4200D810BD0248FB
:10419000FEF7E6FA0000042088F3001010B50C00CA
:1041A00008F04CFF002804D00419034B9C4200D8AF
:1041B00010BD0248FEF7D4FA0000042088F3001076
:1041C00010B508F071FB10BD01480421014B1847E0
:1041D0001012002031390010014B1B6818470000F5
:1041E00010120020014B5B681847000010120020DD
:1041F00010B5FFF7C1FF10BD10B5FFF7BDFF10BD33
:1042000010B5FFF7DDFF10BD10B503000800110069
:104210001B68984710BD0000F8B507000D00160098
:10422000437D002B02D0002400200CE00368110025
:10423000280098472DE03B7D10E0022115483B689F
:104240009847601C0134B44214DA002CF3DD2B19BA
:10425000013B1B780D3B5A425341DBB22A5D0A2ACF
:10426000F0D1002BEED1A042E7DA211A28183B68E2
:104270009847E2E7B04203DA311A28183B689847BA
:10428000002E06DDAD19013D2B780D3B5A425341FE
:104290003B75F8BD18F4001070B505000368002BDD
:1042A00016D00C4B1C6805E0290004C92000FFF75C
:1042B000B3FF2469002C09D02368002BF9D0064BEA
:1042C0001B68002BF0D0A342F3D1EDE700232B6055
:1042D00070BDC046A81C0020B01C002070B50500B1
:1042E0000C000B68802B05D021684B1C23606418E0
:1042F000257170BD0800FFF7CFFFF5E7F0B583B07B
:1043000007000E000092019328E0A368002B04D060
:10431000310038009847002827DC2469002C06D09B
:10432000134B1D68002DF0D0A542F6D1EDE70099A2
:10433000019A104B5B6A9A4209D80E48806A8842FB
:104340000FD29A4201D0012302E0002300E00023B3
:10435000002B08D101200021FDF7E6FB064B1C686D
:10436000DCE70123F4E70120404203B0F0BDC04682
:10437000B01C002000400540A81C002010B5FDF72F
:10438000B3FB02000B1E0BDB0D48002112184B4142
:10439000002B0BDB002B0DDB0A4809F0B9FE10BD2A
:1043A000094B0A4A3F210A48FEF740F901225242CE
:1043B000084BEFE7044B054A3F210548FEF736F965
:1043C00040420F00901A0020ECE7001000F40010AB
:1043D00008E80010FFFFFF7F10B5024809F048FE13
:1043E00010BDC046901A0020F0B5CE46474680B5B5
:1043F00083B006000D0090461C00FFF7BFFF81460A
:104400006B1C05D0002C08D0194F1A4B1C6807E014
:10441000300009F067F80500F4E7174FF5E7246965
:10442000002C17D02368002BF9D0144B1B68002BED
:1044300001D0A342F3D12A0031002000B8474346FF
:10444000002BECD06B46D91D0A230B7001222000F3
:10445000B847E4E74B46002B07D16B1E9D41E8B2FD
:1044600003B0C0BCB946B046F0BDFFF7B5FFF4E7F6
:1044700009420010A81C002019420010B01C0020A6
:1044800010B5030008001100002B05D1044B1A6879
:104490005B68FFF733FF10BD01204042FBE7C046D9
:1044A000B8EB001010B5030008001400013B012B0D
:1044B00006D8002300222100FFF796FF200010BD40
:1044C00001204042FBE7012040427047012040426A
:1044D00070470120404270470300002002229A42A8
:1044E00040417047094A01E010331A001368002B5D
:1044F00008D08342F8D1002907D103691360002353
:10450000036102E0002900D010607047A81C002061
:1045100010B5064B1C6801E098472469002C03D0B5
:104520006368002BF8D1F8E710BDC046A81C002036
:1045300070B5050008F0D6FF040000230122010039
:104540002800FFF751FFFFF7E3FF200070BD0000D8
:1045500070B5A2B004000E00FFF710FF05000023A5
:1045600001933300220001A90848FFF7B9F90400BC
:1045700001A8FFF791FEFFF7CBFF002D02D120002D
:1045800022B070BDFFF728FFF9E7C046DD420010FA
:104590000FB400B583B004A901C90191FFF7D8FF9A
:1045A00003B008BC04B0184710B500F0F9F80120BA
:1045B00010BD0000F0B583B005000E0000240FE030
:1045C0006B46D91D0D230B700020002816D193696E
:1045D0009B06FCD40B78136001300131F5E7013400
:1045E000B44219DA0D4B1A682F5D0D4BD31859429E
:1045F0004B415B000B495B5EBB42E1D06B46D91D72
:104600000F7000200028EAD193699B06FCD40B7838
:10461000136001300131F5E703B0F0BDE81E002062
:104620000080FCBFE41E0020F0B583B006000F0040
:10463000002504E06B4607331B782B702500BD4234
:1046400015DA174B1A6893691024210019401C428F
:104650000DD16C1C75196B46D81D0029EAD19369E0
:10466000DB06FCD41368037001310130F5E70D4B14
:104670001B68002B0CD00A4B1A685023936311005F
:104680003431536B38221A4080235B010B431A608C
:10469000002D02D0280003B0F0BD033DFAE7C0466C
:1046A000E81E0020381C002010B5064B1B68002BAC
:1046B00006D0054A126800219163044A10689847A1
:1046C00010BDC046381C0020E81E00203C1C002005
:1046D00070B504000E001C4B1B681C4A981842421F
:1046E000504114300500002C03D0194A1268002AEA
:1046F00006D0002C19D0164B1C60164B1E6070BDE6
:104700001549FCF78FFA01212800FCF77BFA0E4BC4
:104710001A685023936311003431536B38221A40C6
:1047200080235B010B431A60E5E7094A1268002AFF
:10473000E1D000229A6300212800FCF763FA0649C1
:104740002800FCF799FAD6E7E81E00200080FCBF9D
:10475000381C00203C1C0020A946001070B50D003C
:104760001C000D4B1860002A0BDA002C0EDA0A4BE5
:1047700018682900FDF73AFD01210848FFF7B2FE4D
:1047800070BD02211000FCF73FF9EEE70221200086
:10479000FCF73AF9EBE7C046E81E002020120020A3
:1047A00010B5064B1B78064B1B78E1210123002234
:1047B00049020448FFF7D2FF10BDC046E8130110BC
:1047C000EC13011000400340F0B5DE4657464E465C
:1047D0004546E0B585B0060010001C0002930EAB04
:1047E0001A7803920F9D109F33680022DA663368AF
:1047F000596033680132DA66A246002398469B4628
:1048000000242BE03279002A31D001222FE00399D5
:10481000002901D000212EE001212CE03800A8471A
:1048200003000443E4B2002B06D13268526BD20677
:1048300002D4002DF2D1F6E7002B09D13268802195
:1048400051588B4600291FD1002C2FD1C1451ED0B5
:10485000002C33D101229446E0440198D0452DDA52
:10486000029A013A91464246002ACBD00022920297
:10487000C145CCD0002149020A43411C0191007876
:10488000316802430A61D4E7526D01240EE0039AB5
:10489000002ADDD10AE03800A84703000443E4B24F
:1048A000002B06D13268526B920502D4002DF2D152
:1048B000F6E7002BCCD13268126EC9E7002C09D084
:1048C000002B15D15B46002B16D0DB0718D45B46B6
:1048D0001B0709D5039B3371404605B0F0BCBB46AE
:1048E000B246A946A046F0BD02235B429846F1E7D6
:1048F00001235B429846EDE702235B429846E9E7D5
:1049000002235B429846E5E7F0B5D6464F46464659
:10491000C0B505000C000520FDF7AAFD06006008E3
:1049200080192100FFF748F80700430099468144A9
:1049300005214846FFF740F880463B1A9A46284B27
:104940009C4224D8700080192649FFF735F8441C92
:104950004346023BA34221D32B680022DA66296832
:104960000A680423534006221A4080235B010B434C
:104970001A602B685246DA612B6842461A624B462F
:104980004F2B11D950214846FFF716F80DE0700063
:1049900080191549FFF710F8441CD9E7134B144A46
:1049A0005F211448FDF742FE0120A0232A68D05061
:1049B0002A6811007C31D06F44402404240C8023E9
:1049C0005B010B431C602B680122DA663900300062
:1049D000FEF7F2FFE0BCBA46B146A846F0BDC046BD
:1049E0003F420F008096980040787D015CF40010F3
:1049F000BCF400107CF4001010B5114B98421CD090
:104A00001022104B1A60104B1A60104B9B68140058
:104A10009C43231EF9D104710268D466026866249F
:104A2000FF3414600268D3630268936388330322FF
:104A30000468E250FFF768FF10BD0822E1E7C046B6
:104A40003812002000E0004000F0004000C00040AC
:104A500030B585B008AC2578002402940194009507
:104A6000FFF7B2FE05B030BD1B2210B5024902208F
:104A700008F0A0FD00F016F8D0F4001070B58047E3
:104A800007F098FC06F026FE07F094FC0D000400E9
:104A900006F05AFE6B1C02D1200006F09BFD06F0CA
:104AA0009DFCC046024B10B51868FFF7E7FFC046F3
:104AB0004C12002010B58047FFF7F4FF024B10B5F1
:104AC0001868FFF7F7FFC04648120020014B18682E
:104AD0007047C0464C120020014B18687047C04612
:104AE0004812002070B53D4B82B01A78002A44D19C
:104AF00001221A7007F076FA002834D044680021A9
:104B000023782A3B5A425341E41801235B42002296
:104B10000193200001AB06F0E7FB314D06002B6846
:104B20003022DB6801212F4807F09CFE019B002BFF
:104B300013D02B682000D96807F0B6FC2B6802223E
:104B4000DB680121284807F08DFE019B002B02D174
:104B50003000FFF735FB07F00DFA2B683000D968FD
:104B600007F0A2FCEAE71E4B2D221B680121DB683F
:104B70001E4807F077FE07F01DFC194B1D221B682D
:104B80000121DB681A4807F06DFE07F013FC0C00EA
:104B9000012919D106F09EFD03689B6898472B6890
:104BA00006000B222100DB68124807F05BFE2B6831
:104BB0003000D96807F078FC2B680A20D96807F024
:104BC00001FC06F0C1FDD6E706F084FD06F0BCFD51
:104BD000D1E706F0B9FD06F001FCC046EC1E00204E
:104BE000501200200CF5001040F5001044F50010A4
:104BF000ECF4001074F5001070B5040050291CD8B6
:104C00000F4D880028588746002A16D0002B14D054
:104C10006569A069854210DA2669A800B4460026B5
:104C2000401980006044013546608660656101700E
:104C3000C260036170BD002AEAD10020FAE7C046D5
:104C400080F50010F8B5CE46474680B5C568060029
:104C50002C786E2C27D0303CE3B2092B2ED80023C1
:104C60009846174B00279946013507E04B460A2125
:104C7000181B0135FEF778FEB84212DBBB00DF19C6
:104C80007F00F5603F192C78303CE3B2092BEDD959
:104C90004346002B00D07F423800C0BCB946B04626
:104CA000F8BD0127F7E76B1CC3606C78303CE2B2BB
:104CB000092A03D81D0001239846D2E70027EBE715
:104CC000FFFFFF7F10B50400002908D1C3681A78E0
:104CD000002A01D1002010BD5A1CC2601978682931
:104CE0000AD07629F6D12000FFF7ACFFE3681A78E6
:104CF0005F2AEFD10133E3602000FFF7A3FFE368F1
:104D00001A785F2AE6D101330120E360E3E7C04669
:104D100010B5C3680A00197852290DD04F2901D067
:104D2000100010BDC16A0331C16220210133C3608C
:104D30000023FFF761FFF4E7C16A0231C1621F215E
:104D4000F4E7C04670B505000C1E15D08E208021FA
:104D50001A4E4000C900A368012B0DDC2A588A4274
:104D60000ADC0133A3602378502B05D89B00F3584D
:104D70009F46E468002CEED170BD2469FAE7A221B9
:104D800049006B5801336B50E1688E260132760082
:104D90002800AA51FFF7D6FF28002169FFF7D2FFAC
:104DA000AB59013BAB51E7E7E1680B78052BECD140
:104DB0009C2040002B5801332B50E6E7C4F600102E
:104DC00010B5C36804001A785F2A09D15A1CC26062
:104DD0005A785F2A06D0FFF735FFC043C00F00E0C6
:104DE000012010BD0233C360FFF72CFF00280ADB4F
:104DF0000928F5DDE36800201A785F2AF1D1013334
:104E0000E3600130EDE70020EBE7C046002806D163
:104E100008E0002908DD00690139002803D0037883
:104E20002F2BF6D0002070470029FBD1C068FAE78D
:104E3000F0B514005268C64694464B1CA5686344FE
:104E400007000E0000B5AB4215D8E568002D0FD164
:104E5000636820689C46320060443900FFF7C2F95D
:104E6000236862689B199D5463689C46664466602B
:104E700080BCB846F0BDE268002AF9D1002D02D10D
:104E8000022B0DD902356D00AB42FCD829002068F9
:104E9000FFF784F98046002804D02060A560D4E79D
:104EA0000225F3E72068FFF78BF943462360636030
:104EB000A3600123E360DBE702780300722A12D0CB
:104EC000562A10D04B2A0ED00020442A0CD15B78F1
:104ED000243A190091434F2905D00122773BDBB2D8
:104EE0009A42404100E001207047C04680235B00A9
:104EF000C35870B504000D00FF2B08D0591C802248
:104F00005200A150E55482235B00E55470BD00229D
:104F1000C25486235B00C258043BFF21C358984704
:104F200094225200A35801210133A3500023E6E745
:104F30008822520003008058002814D04368186962
:104F4000CB68002B0CDB002806D109E0002B08D031
:104F50000069013B002803D002782F2AF6D00020F8
:104F60007047C068FCE7012108329950F8E7C04655
:104F700070B505000C1E0FD00D4E23784C2B0DD8AC
:104F80009B00F3589F4621002800FFF7D1FF00281F
:104F900002D003782F2B00D0002070BD2800E168DC
:104FA000FFF7E6FF0028F8D12469002CE5D1F3E7EC
:104FB00008F80010F0B5D6464F4646460500C0B585
:104FC00008000C0008F08EFA00282AD00022802366
:104FD00092460D32FF3291465B00043A9046EB5800
:104FE00027180AE01900013380225200AB50013427
:104FF00004326E54AE54A74213D02678FF2BF1D161
:105000005246EA544B46EA584346FF21EB582800E3
:10501000984794225200AB5800210133AB50012332
:10502000E2E7E0BCBA46B146A846F0BD10B5C36899
:1050300004001A78542A23D15A1CC2605A785F2A75
:1050400020D06E2A1CD0FFF7FDFD421C18D4E36867
:1050500019785F2914D10133E3606369A1698B4238
:105060000EDA216998008C460021C0188000604447
:1050700001334160816063610523C260037000E019
:10508000002010BD02330022C360E6E7F0B5D6462B
:105090004F464646C0B588B00A0005001D4901A824
:1050A000FEF70AFC01A808F01DFA00282BD0002208
:1050B000802392460D32FF3291465B0001AC043AE8
:1050C0009046EB5827180AE019000133802252005D
:1050D000AB50013404326E54AE54A74213D026783C
:1050E000FF2BF1D15246EA544B46EA584346FF2182
:1050F000EB582800984794225200AB580021013306
:10510000AB500123E2E708B0E0BCBA46B146A8467E
:10511000F0BDC046C406011070B50400FFF792FD53
:10512000051E46DDE66863689B1B98423FDCA2686B
:105130003318E360520702D51A78242A3BD0092D90
:1051400024DD082230002C4907F0B4FE002806D1E7
:10515000337A2E2B34D05F2B32D0242B30D063699E
:10516000A269934223DA2269980094460022C0186B
:105170008000604401334260826063610023C66046
:105180004360836003700561A06270BD6369A269BA
:1051900093420CDA2269980094460022C0188000DD
:1051A00060440133426082606361002EE6D10020DA
:1051B000EAE70020E9E70133E360092DC1DCE5E718
:1051C000737A4E2BCBD1E36AA26916335D1B6369F8
:1051D000E5629342EBDA22699800C01894460133E5
:1051E0006361002380006044436083600370034B6D
:1051F000C36015230361C7E7C8060110D406011078
:10520000F0B5C64600B5C36804001A78532A28D101
:105210005A1CC260587800280ED09A1CE260587858
:105220005F2843D00300303BDAB20025092A30D989
:105230000200413A192A2CD90823A26813401D0004
:105240006A1E9541002B01D1002939D1504B74229F
:105250001900C43100E01A78824238D01C338B42E6
:10526000F9D10025280080BCB846F0BDEB005B19E1
:105270009B001B18303B9D42F3D8E2681078002851
:1052800004D0511CE16010785F2817D01D00030086
:10529000303BDBB2092BE9D90300413B192BE0D8A5
:1052A000EA00521993001B18373BE4E70023226AF7
:1052B0009A42D6D9E2699B009D58D3E70133F6E7BD
:1052C000E3681B78433B012BC0D80D00BEE75E6945
:1052D000002E55D09A69A06994466269824254DAD8
:1052E00027699100B8460027891889004144013296
:1052F0004F608F606261CE60664618370F700E6136
:10530000A162002D39D0DE681969E36A5B18E36297
:10531000904238DD236995009C460023AD18AD000E
:1053200065446B60AB600132183362612B70EE60D4
:105330002961E3681A78422A94D1A66A0133E360AE
:105340002000FFF7E9FE2A0003004C212000FFF7B0
:1053500053FCE36805001A78422AEFD0A6620028C1
:1053600000D17EE7236A626A934200DB79E7E16954
:105370009A0001335050236274E75E689968C4E76D
:10538000A0696269BDE70025D3E70021B8E7C04600
:10539000F8FE0010F0B54F46D6464646C0B58F1809
:1053A00005000C00B94252D280235B0098460023CE
:1053B00099460DE04346EB58FF2B35D05A1C414629
:1053C0006A50EE5482235B00EE540134A7423ED96A
:1053D00026783B1B032BEDDD5F2EEBD160785F2839
:1053E000E8D1A378552BE5D1E31C9A469F42E1D939
:1053F000002253461E783300303BD9B2092907D921
:10540000113B052B03D93300613B052B24D80A330C
:1054100012019A1801239C46E2445745E9D14346BC
:10542000EB585F26FF2BC9D14A46EA5486235B001E
:10543000EA58043BEB58FF21280098479422520079
:10544000AB580133AB50283A0023FF3AB7E7E0BC32
:10545000BA46B146A846F0BD574522D95F2EDED1E7
:10546000FF2AA7D84346EB58D4B2FF2B08D04146B9
:105470005A1C6A50EC5482235B00EC545446A4E757
:105480004A46EA54862209335200EB58AA58FF21B3
:105490002800984794225200AB580133AB500023A8
:1054A000E5E7060086E7C046F0B5C64600B5C66823
:1054B000040082B03000FFF7FFFC002828D13278CA
:1054C0001300303BDBB24A2B1CD8D3499B00CB588E
:1054D0009F460123256B2000236301F023FB2563F6
:1054E0000200002343212000FFF786FB051E0190E8
:1054F00008D0E3681A78002A04D05A1CE2601B78AE
:10550000452B59D00025280002B080BCB846F0BD1C
:105510000022200001A901F06FFD051EF2D0E36812
:1055200020001B78462B1BD0FFF7BEFF2860002809
:10553000E8D003781F3B012B05D8019AC368C260ED
:105540002A6801922B60019D002DDBD0236A626ADC
:105550009342D7DAE1699A00013355502362D2E7CA
:1055600000F02AFC2860E2E7613A93009A18AB4BFE
:105570009200D218A16963698B4200DB08E32169BC
:1055800098008C460021C01885006544013369608D
:10559000A960636127232B705368EA60E26A0136D1
:1055A00094466344E362E660ADE7200000F0D6FD78
:1055B00005000190002DA5D0236A626A9342A1DA0A
:1055C000E1699A0055500133019D23629BE773788E
:1055D0001A00303A092A05D95F2B03D0413B192B19
:1055E00000D998E200212000FFF70AFEE36801904D
:1055F0001A780500492A00D085E70133E3602000CE
:1056000001F0DCFD2A00030004212000FFF7F4FA7A
:1056100005000190CEE701362000E660FFF744FF69
:105620000023020023212000FFF7E6FA0500019085
:10563000C0E701362000E660FFF736FF00230200D6
:1056400022212000FFF7D8FA05000190B2E70136C9
:105650002000E660FFF728FF00230200242120003D
:10566000FFF7CAFA05000190A4E701362000E660C2
:10567000FFF71AFF0023020026212000FFF7BCFAE3
:105680000500019096E701362000E660FFF744FD33
:105690000023020028212000FFF7AEFA0500019048
:1056A00088E7200000F088FB0500019082E7731C6A
:1056B000E3607378002B00D124E7B31CE3607378B8
:1056C000463BDBB2302B00D91CE7554A9B00D35830
:1056D0009F4601362000E660FFF7E6FE0023020049
:1056E00025212000FFF788FA0500019062E70136C6
:1056F0002000E660FFF710FDE36801901A780500CE
:10570000492A00D1EDE12000FFF7CEFE2121020061
:10571000019B2000FFF770FA050001904AE7200086
:10572000FFF784FCE668019033780500492B00D030
:1057300040E7636B002B00D0F9E1002800D1E1E6DF
:10574000236A626A934200DBDCE6E1699A00013376
:105750005050236232780023493A012A05D8013695
:105760002000E66001F02AFD03002A004CE7711CCE
:10577000E16073785F2B00D1B1E1303B092B00D998
:10578000BCE10B001E000133E3601A78303A092AAD
:10579000F8D96269A0695F1A824200DBB2E620692B
:1057A000950084460020AD18AD0065440132686064
:1057B000A8606261002F00DCA4E6E960190068605F
:1057C000A86028702F6172785F2A00D09AE60131B4
:1057D000E1602000FFF768FE2A0003002A21200074
:1057E000FFF70AFA05000190E4E601362000E660C2
:1057F000FFF75AFE051E00D184E62000FFF754FE95
:10580000031E00D17EE62A002B212000FFF7F4F9C9
:1058100005000190CEE6C0463CF900101C040110C2
:1058200068FA00106369A269934200DBB4E122695F
:105830009D0094460022ED18AD00654401336A6076
:10584000AA6063612C23092101952B70B378303B4A
:10585000DBB2994252412A82092B03D82000FFF77C
:10586000F1F9019D2000FFF71FFE019BE860DB6856
:10587000002B00D146E62000FFF7E4F9E268137838
:10588000002B02D0531CE3601378733B5A42534100
:10589000019D6B8237E66369A269934200DB31E6C2
:1058A00022699D00ED189446013363610023AD0029
:1058B00065446B60AB602B70B94BEB600E232B61C2
:1058C00021E66369A269934200DB1BE622699D0021
:1058D000ED189446013363610023AD0065446B60AD
:1058E000AB602B70AF4BEB6004232B610BE663695D
:1058F000A269934200DB4BE122699D00944600229D
:10590000ED18AD00654401336A60AA606361272326
:105910002B70A54BEB60E36A0433E362F3E5636944
:10592000A269934200DB33E122699D009446002284
:10593000ED18AD00654401336A60AA6063612723F6
:105940002B709A4BEB60E36A0933E362DBE5636932
:10595000A269934200DB1BE122699D00944600226C
:10596000ED18AD00654401336A60AA6063612723C6
:105970002B708F4BEB60E36A0A33E362C3E5636924
:10598000A269934200DB03E122699D009446002254
:10599000ED18AD00654401336A60AA606361272396
:1059A0002B70844BEB60E36A0933E362ABE5636918
:1059B000A269934200DBEBE022699D00944600223D
:1059C000ED18AD00654401336A60AA606361272366
:1059D0002B70794BEB60E36A0833E36293E52000B8
:1059E000FFF762FD002302004B212000FFF704F9BE
:1059F00005000190DEE56369A269934200DBC7E020
:105A000022699D0094460022ED18AD0065440133E3
:105A10006A60AA60636127232B70684BEB60E36ABE
:105A20001133E3626FE56369A269934200DBAFE083
:105A300022699D0094460022ED18AD0065440133B3
:105A40006A60AA60636127232B705D4BEB60E36A99
:105A50000833E36257E5B3785F2B00D18BE06369CD
:105A6000A269934200DB4DE522699D009446002225
:105A7000ED18AD00654401336A60AA60636142239A
:105A800020002B70FFF7DEF8E860E3681A785F2AE1
:105A900000D037E50133E3602000FFF705FD2A0061
:105AA00003002D212000FFF7A7F80500019081E5F4
:105AB0006369A26993426BDA22699D0094460022D1
:105AC000ED18AD00654401336A60AA606361272365
:105AD0002B703C4BEB60E36A0733E36213E5002570
